{
    "_format": "hh-sol-artifact-1",
    "contractName": "Radava",
    "sourceName": "contracts/Radava.sol",
    "abi": [
        {
            "inputs": [],
            "stateMutability": "nonpayable",
            "type": "constructor"
        },
        {
            "inputs": [
                {
                    "internalType": "uint256",
                    "name": "_id",
                    "type": "uint256"
                },
                {
                    "internalType": "string",
                    "name": "id",
                    "type": "string"
                },
                {
                    "internalType": "string",
                    "name": "product_name",
                    "type": "string"
                },
                {
                    "internalType": "uint256",
                    "name": "quantity",
                    "type": "uint256"
                },
                {
                    "internalType": "uint256",
                    "name": "price",
                    "type": "uint256"
                }
            ],
            "name": "addReceipt",
            "outputs": [],
            "stateMutability": "nonpayable",
            "type": "function"
        },
        {
            "inputs": [
                {
                    "internalType": "uint256",
                    "name": "_id",
                    "type": "uint256"
                },
                {
                    "internalType": "uint256",
                    "name": "index",
                    "type": "uint256"
                }
            ],
            "name": "closeReceipt",
            "outputs": [],
            "stateMutability": "nonpayable",
            "type": "function"
        },
        {
            "inputs": [
                {
                    "internalType": "uint256",
                    "name": "_id",
                    "type": "uint256"
                }
            ],
            "name": "getReceipt",
            "outputs": [
                {
                    "components": [
                        {
                            "internalType": "string",
                            "name": "id",
                            "type": "string"
                        },
                        {
                            "internalType": "string",
                            "name": "product_name",
                            "type": "string"
                        },
                        {
                            "internalType": "uint256",
                            "name": "quantity",
                            "type": "uint256"
                        },
                        {
                            "internalType": "uint256",
                            "name": "price",
                            "type": "uint256"
                        },
                        {
                            "internalType": "uint256",
                            "name": "timestamp",
                            "type": "uint256"
                        },
                        {
                            "internalType": "bool",
                            "name": "retired",
                            "type": "bool"
                        },
                        {
                            "internalType": "uint256",
                            "name": "closed_at",
                            "type": "uint256"
                        }
                    ],
                    "internalType": "struct Radava.Receipt[]",
                    "name": "",
                    "type": "tuple[]"
                }
            ],
            "stateMutability": "view",
            "type": "function"
        }
    ],
    "bytecode": "0x608060405234801561001057600080fd5b5033600160006101000a81548173ffffffffffffffffffffffffffffffffffffffff021916908373ffffffffffffffffffffffffffffffffffffffff160217905550611018806100616000396000f3fe608060405234801561001057600080fd5b50600436106100415760003560e01c8063b63e6ac314610046578063d0a6a69c14610076578063ed5e88d614610092575b600080fd5b610060600480360381019061005b919061069e565b6100ae565b60405161006d91906108ea565b60405180910390f35b610090600480360381019061008b919061090c565b6102de565b005b6100ac60048036038101906100a79190610a81565b6104d6565b005b606060008060008481526020019081526020016000208054905011610108576040517f08c379a00000000000000000000000000000000000000000000000000000000081526004016100ff90610b91565b60405180910390fd5b600080838152602001908152602001600020805480602002602001604051908101604052809291908181526020016000905b828210156102d357838290600052602060002090600702016040518060e001604052908160008201805461016d90610be0565b80601f016020809104026020016040519081016040528092919081815260200182805461019990610be0565b80156101e65780601f106101bb576101008083540402835291602001916101e6565b820191906000526020600020905b8154815290600101906020018083116101c957829003601f168201915b505050505081526020016001820180546101ff90610be0565b80601f016020809104026020016040519081016040528092919081815260200182805461022b90610be0565b80156102785780601f1061024d57610100808354040283529160200191610278565b820191906000526020600020905b81548152906001019060200180831161025b57829003601f168201915b505050505081526020016002820154815260200160038201548152602001600482015481526020016005820160009054906101000a900460ff161515151581526020016006820154815250508152602001906001019061013a565b505050509050919050565b600160009054906101000a900473ffffffffffffffffffffffffffffffffffffffff1673ffffffffffffffffffffffffffffffffffffffff163373ffffffffffffffffffffffffffffffffffffffff161461036e576040517f08c379a000000000000000000000000000000000000000000000000000000000815260040161036590610c83565b60405180910390fd5b600080600084815260200190815260200160002080549050116103c6576040517f08c379a00000000000000000000000000000000000000000000000000000000081526004016103bd90610b91565b60405180910390fd5b600080600084815260200190815260200160002082815481106103ec576103eb610ca3565b5b9060005260206000209060070201600001805461040890610be0565b90501161044a576040517f08c379a000000000000000000000000000000000000000000000000000000000815260040161044190610d44565b60405180910390fd5b600160008084815260200190815260200160002082815481106104705761046f610ca3565b5b906000526020600020906007020160050160006101000a81548160ff0219169083151502179055504260008084815260200190815260200160002082815481106104bd576104bc610ca3565b5b9060005260206000209060070201600601819055505050565b600160009054906101000a900473ffffffffffffffffffffffffffffffffffffffff1673ffffffffffffffffffffffffffffffffffffffff163373ffffffffffffffffffffffffffffffffffffffff1614610566576040517f08c379a000000000000000000000000000000000000000000000000000000000815260040161055d90610c83565b60405180910390fd5b6000808681526020019081526020016000206040518060e0016040528086815260200185815260200184815260200183815260200142815260200160001515815260200142815250908060018154018082558091505060019003906000526020600020906007020160009091909190915060008201518160000190816105ec9190610f10565b5060208201518160010190816106029190610f10565b5060408201518160020155606082015181600301556080820151816004015560a08201518160050160006101000a81548160ff02191690831515021790555060c0820151816006015550505050505050565b6000604051905090565b600080fd5b600080fd5b6000819050919050565b61067b81610668565b811461068657600080fd5b50565b60008135905061069881610672565b92915050565b6000602082840312156106b4576106b361065e565b5b60006106c284828501610689565b91505092915050565b600081519050919050565b600082825260208201905092915050565b6000819050602082019050919050565b600081519050919050565b600082825260208201905092915050565b60005b83811015610731578082015181840152602081019050610716565b60008484015250505050565b6000601f19601f8301169050919050565b6000610759826106f7565b6107638185610702565b9350610773818560208601610713565b61077c8161073d565b840191505092915050565b61079081610668565b82525050565b60008115159050919050565b6107ab81610796565b82525050565b600060e08301600083015184820360008601526107ce828261074e565b915050602083015184820360208601526107e8828261074e565b91505060408301516107fd6040860182610787565b5060608301516108106060860182610787565b5060808301516108236080860182610787565b5060a083015161083660a08601826107a2565b5060c083015161084960c0860182610787565b508091505092915050565b600061086083836107b1565b905092915050565b6000602082019050919050565b6000610880826106cb565b61088a81856106d6565b93508360208202850161089c856106e7565b8060005b858110156108d857848403895281516108b98582610854565b94506108c483610868565b925060208a019950506001810190506108a0565b50829750879550505050505092915050565b600060208201905081810360008301526109048184610875565b905092915050565b600080604083850312156109235761092261065e565b5b600061093185828601610689565b925050602061094285828601610689565b9150509250929050565b600080fd5b600080fd5b7f4e487b7100000000000000000000000000000000000000000000000000000000600052604160045260246000fd5b61098e8261073d565b810181811067ffffffffffffffff821117156109ad576109ac610956565b5b80604052505050565b60006109c0610654565b90506109cc8282610985565b919050565b600067ffffffffffffffff8211156109ec576109eb610956565b5b6109f58261073d565b9050602081019050919050565b82818337600083830152505050565b6000610a24610a1f846109d1565b6109b6565b905082815260208101848484011115610a4057610a3f610951565b5b610a4b848285610a02565b509392505050565b600082601f830112610a6857610a6761094c565b5b8135610a78848260208601610a11565b91505092915050565b600080600080600060a08688031215610a9d57610a9c61065e565b5b6000610aab88828901610689565b955050602086013567ffffffffffffffff811115610acc57610acb610663565b5b610ad888828901610a53565b945050604086013567ffffffffffffffff811115610af957610af8610663565b5b610b0588828901610a53565b9350506060610b1688828901610689565b9250506080610b2788828901610689565b9150509295509295909350565b600082825260208201905092915050565b7f496e76616c696420757365722049440000000000000000000000000000000000600082015250565b6000610b7b600f83610b34565b9150610b8682610b45565b602082019050919050565b60006020820190508181036000830152610baa81610b6e565b9050919050565b7f4e487b7100000000000000000000000000000000000000000000000000000000600052602260045260246000fd5b60006002820490506001821680610bf857607f821691505b602082108103610c0b57610c0a610bb1565b5b50919050565b7f4f6e6c7920746865206f776e65722063616e2063616c6c2074686973206d657460008201527f686f640000000000000000000000000000000000000000000000000000000000602082015250565b6000610c6d602383610b34565b9150610c7882610c11565b604082019050919050565b60006020820190508181036000830152610c9c81610c60565b9050919050565b7f4e487b7100000000000000000000000000000000000000000000000000000000600052603260045260246000fd5b7f5265636569707420646f6573206e6f7420657869737420666f7220746865206760008201527f6976656e20696e64657800000000000000000000000000000000000000000000602082015250565b6000610d2e602a83610b34565b9150610d3982610cd2565b604082019050919050565b60006020820190508181036000830152610d5d81610d21565b9050919050565b60008190508160005260206000209050919050565b60006020601f8301049050919050565b600082821b905092915050565b600060088302610dc67fffffffffffffffffffffffffffffffffffffffffffffffffffffffffffffffff82610d89565b610dd08683610d89565b95508019841693508086168417925050509392505050565b6000819050919050565b6000610e0d610e08610e0384610668565b610de8565b610668565b9050919050565b6000819050919050565b610e2783610df2565b610e3b610e3382610e14565b848454610d96565b825550505050565b600090565b610e50610e43565b610e5b818484610e1e565b505050565b5b81811015610e7f57610e74600082610e48565b600181019050610e61565b5050565b601f821115610ec457610e9581610d64565b610e9e84610d79565b81016020851015610ead578190505b610ec1610eb985610d79565b830182610e60565b50505b505050565b600082821c905092915050565b6000610ee760001984600802610ec9565b1980831691505092915050565b6000610f008383610ed6565b9150826002028217905092915050565b610f19826106f7565b67ffffffffffffffff811115610f3257610f31610956565b5b610f3c8254610be0565b610f47828285610e83565b600060209050601f831160018114610f7a5760008415610f68578287015190505b610f728582610ef4565b865550610fda565b601f198416610f8886610d64565b60005b82811015610fb057848901518255600182019150602085019450602081019050610f8b565b86831015610fcd5784890151610fc9601f891682610ed6565b8355505b6001600288020188555050505b50505050505056fea2646970667358221220a4294b18369adf95537917d9ea743e6e8b680bd80779ec7ad362937233e3150b64736f6c63430008120033",
    "linkReferences": {},
    "deployedLinkReferences": {}
}